{
  "_format": "hh-sol-artifact-1",
  "contractName": "Data",
  "sourceName": "contracts/Data.sol",
  "abi": [
    {
      "inputs": [],
      "stateMutability": "nonpayable",
      "type": "constructor"
    },
    {
      "inputs": [
        {
          "internalType": "string",
          "name": "_name",
          "type": "string"
        },
        {
          "internalType": "uint256",
          "name": "_weight",
          "type": "uint256"
        },
        {
          "internalType": "uint256",
          "name": "_bloodPressure",
          "type": "uint256"
        },
        {
          "internalType": "uint256",
          "name": "_pulse",
          "type": "uint256"
        },
        {
          "internalType": "uint256",
          "name": "userIndex",
          "type": "uint256"
        }
      ],
      "name": "addObject",
      "outputs": [],
      "stateMutability": "nonpayable",
      "type": "function"
    },
    {
      "inputs": [
        {
          "internalType": "uint256",
          "name": "userIndex",
          "type": "uint256"
        }
      ],
      "name": "getListLength",
      "outputs": [
        {
          "internalType": "uint256",
          "name": "",
          "type": "uint256"
        }
      ],
      "stateMutability": "view",
      "type": "function"
    },
    {
      "inputs": [
        {
          "internalType": "uint256",
          "name": "dataIndex",
          "type": "uint256"
        },
        {
          "internalType": "uint256",
          "name": "userIndex",
          "type": "uint256"
        }
      ],
      "name": "getObject",
      "outputs": [
        {
          "internalType": "string",
          "name": "",
          "type": "string"
        },
        {
          "internalType": "uint256",
          "name": "",
          "type": "uint256"
        },
        {
          "internalType": "uint256",
          "name": "",
          "type": "uint256"
        },
        {
          "internalType": "uint256",
          "name": "",
          "type": "uint256"
        }
      ],
      "stateMutability": "view",
      "type": "function"
    },
    {
      "inputs": [
        {
          "internalType": "uint256",
          "name": "",
          "type": "uint256"
        },
        {
          "internalType": "uint256",
          "name": "",
          "type": "uint256"
        }
      ],
      "name": "userDatas",
      "outputs": [
        {
          "internalType": "uint256",
          "name": "weight",
          "type": "uint256"
        },
        {
          "internalType": "uint256",
          "name": "bloodPressure",
          "type": "uint256"
        },
        {
          "internalType": "uint256",
          "name": "pulse",
          "type": "uint256"
        },
        {
          "internalType": "string",
          "name": "name",
          "type": "string"
        }
      ],
      "stateMutability": "view",
      "type": "function"
    },
    {
      "inputs": [
        {
          "internalType": "uint256",
          "name": "",
          "type": "uint256"
        }
      ],
      "name": "userListLength",
      "outputs": [
        {
          "internalType": "uint256",
          "name": "",
          "type": "uint256"
        }
      ],
      "stateMutability": "view",
      "type": "function"
    }
  ],
  "bytecode": "0x608060405234801561001057600080fd5b50610c77806100206000396000f3fe608060405234801561001057600080fd5b50600436106100575760003560e01c8063040728421461005c578063728eb46b1461008f578063834a9b3f146100bf578063b689c1eb146100f2578063e1c869c114610122575b600080fd5b610076600480360381019061007191906104f5565b61013e565b60405161008694939291906105d4565b60405180910390f35b6100a960048036038101906100a49190610620565b6102e7565b6040516100b6919061064d565b60405180910390f35b6100d960048036038101906100d491906104f5565b6102ff565b6040516100e99493929190610668565b60405180910390f35b61010c60048036038101906101079190610620565b6103c4565b604051610119919061064d565b60405180910390f35b61013c600480360381019061013791906107e9565b6103e1565b005b606060008060006001600086815260200190815260200160002054861061019a576040517f08c379a0000000000000000000000000000000000000000000000000000000008152600401610191906108cc565b60405180910390fd5b6000806000878152602001908152602001600020600088815260200190815260200160002060030180546101cd9061091b565b80601f01602080910402602001604051908101604052809291908181526020018280546101f99061091b565b80156102465780601f1061021b57610100808354040283529160200191610246565b820191906000526020600020905b81548152906001019060200180831161022957829003601f168201915b5050505050905060008060008881526020019081526020016000206000898152602001908152602001600020600001549050600080600089815260200190815260200160002060008a815260200190815260200160002060020154905060008060008a815260200190815260200160002060008b81526020019081526020016000206001015490508383828497509750975097505050505092959194509250565b60016020528060005260406000206000915090505481565b6000602052816000526040600020602052806000526040600020600091509150508060000154908060010154908060020154908060030180546103419061091b565b80601f016020809104026020016040519081016040528092919081815260200182805461036d9061091b565b80156103ba5780601f1061038f576101008083540402835291602001916103ba565b820191906000526020600020905b81548152906001019060200180831161039d57829003601f168201915b5050505050905084565b600060016000838152602001908152602001600020549050919050565b6000600160008381526020019081526020016000205490506000604051806080016040528087815260200186815260200185815260200188815250905080600080858152602001908152602001600020600084815260200190815260200160002060008201518160000155602082015181600101556040820151816002015560608201518160030190816104759190610af8565b5090505060016000848152602001908152602001600020600081548092919061049d90610bf9565b919050555050505050505050565b6000604051905090565b600080fd5b600080fd5b6000819050919050565b6104d2816104bf565b81146104dd57600080fd5b50565b6000813590506104ef816104c9565b92915050565b6000806040838503121561050c5761050b6104b5565b5b600061051a858286016104e0565b925050602061052b858286016104e0565b9150509250929050565b600081519050919050565b600082825260208201905092915050565b60005b8381101561056f578082015181840152602081019050610554565b60008484015250505050565b6000601f19601f8301169050919050565b600061059782610535565b6105a18185610540565b93506105b1818560208601610551565b6105ba8161057b565b840191505092915050565b6105ce816104bf565b82525050565b600060808201905081810360008301526105ee818761058c565b90506105fd60208301866105c5565b61060a60408301856105c5565b61061760608301846105c5565b95945050505050565b600060208284031215610636576106356104b5565b5b6000610644848285016104e0565b91505092915050565b600060208201905061066260008301846105c5565b92915050565b600060808201905061067d60008301876105c5565b61068a60208301866105c5565b61069760408301856105c5565b81810360608301526106a9818461058c565b905095945050505050565b600080fd5b600080fd5b7f4e487b7100000000000000000000000000000000000000000000000000000000600052604160045260246000fd5b6106f68261057b565b810181811067ffffffffffffffff82111715610715576107146106be565b5b80604052505050565b60006107286104ab565b905061073482826106ed565b919050565b600067ffffffffffffffff821115610754576107536106be565b5b61075d8261057b565b9050602081019050919050565b82818337600083830152505050565b600061078c61078784610739565b61071e565b9050828152602081018484840111156107a8576107a76106b9565b5b6107b384828561076a565b509392505050565b600082601f8301126107d0576107cf6106b4565b5b81356107e0848260208601610779565b91505092915050565b600080600080600060a08688031215610805576108046104b5565b5b600086013567ffffffffffffffff811115610823576108226104ba565b5b61082f888289016107bb565b9550506020610840888289016104e0565b9450506040610851888289016104e0565b9350506060610862888289016104e0565b9250506080610873888289016104e0565b9150509295509295909350565b7f496e646578206f7574206f662072616e67650000000000000000000000000000600082015250565b60006108b6601283610540565b91506108c182610880565b602082019050919050565b600060208201905081810360008301526108e5816108a9565b9050919050565b7f4e487b7100000000000000000000000000000000000000000000000000000000600052602260045260246000fd5b6000600282049050600182168061093357607f821691505b602082108103610946576109456108ec565b5b50919050565b60008190508160005260206000209050919050565b60006020601f8301049050919050565b600082821b905092915050565b6000600883026109ae7fffffffffffffffffffffffffffffffffffffffffffffffffffffffffffffffff82610971565b6109b88683610971565b95508019841693508086168417925050509392505050565b6000819050919050565b60006109f56109f06109eb846104bf565b6109d0565b6104bf565b9050919050565b6000819050919050565b610a0f836109da565b610a23610a1b826109fc565b84845461097e565b825550505050565b600090565b610a38610a2b565b610a43818484610a06565b505050565b5b81811015610a6757610a5c600082610a30565b600181019050610a49565b5050565b601f821115610aac57610a7d8161094c565b610a8684610961565b81016020851015610a95578190505b610aa9610aa185610961565b830182610a48565b50505b505050565b600082821c905092915050565b6000610acf60001984600802610ab1565b1980831691505092915050565b6000610ae88383610abe565b9150826002028217905092915050565b610b0182610535565b67ffffffffffffffff811115610b1a57610b196106be565b5b610b24825461091b565b610b2f828285610a6b565b600060209050601f831160018114610b625760008415610b50578287015190505b610b5a8582610adc565b865550610bc2565b601f198416610b708661094c565b60005b82811015610b9857848901518255600182019150602085019450602081019050610b73565b86831015610bb55784890151610bb1601f891682610abe565b8355505b6001600288020188555050505b505050505050565b7f4e487b7100000000000000000000000000000000000000000000000000000000600052601160045260246000fd5b6000610c04826104bf565b91507fffffffffffffffffffffffffffffffffffffffffffffffffffffffffffffffff8203610c3657610c35610bca565b5b60018201905091905056fea26469706673582212206d59dce8998a534bf01f92c9d348abe4b58fe1b247c0312a7f22bc2939663e6064736f6c63430008120033",
  "linkReferences": {},
  "deployedLinkReferences": {}
}